:100000000A308A00702A0000FF00030E8301A1005D
:100010000A08A0008A010408A2007708A300780853
:10002000A4007908A5007A08A60003170D08031399
:10003000A70003170F080313A80003170C080313E6
:10004000A90003170E080313AA00831383128B1E43
:100050002B280B194C28220884002308F7002408B9
:10006000F8002508F9002608FA00270803178D0074
:100070000313280803178F000313290803178C00A4
:1000800003132A0803178E00031320088A00210E89
:100090008300FF0E7F0E09008A110A126628C11C18
:1000A0005A28F03097050030F8009200013083168E
:1000B00092008312C1186528F0309D050030F800C9
:1000C000920001308316920083120800401C84289D
:1000D0003A308100B808031D83281430B800B908ED
:1000E000031D7A283C30B900C708031D79283C302D
:1000F000C700C703B90B8328C708031D832807104F
:100100004010C1144F20B803C01CA2283A3081000F
:10011000BA08031DA1281430BA00BB08031D982893
:100120003C30BB00C608031D97283C30C600C60300
:10013000BB0BA128C608031DA1288711C010C1143C
:100140004F20BA030B118A110A122B28A531A022C5
:10015000CE214527C424C4278A1263104128C12315
:1001600041290000A531A022CE214527C4225205F5
:10017000A531A020D020C720C4270000D424C52644
:10018000D0278A1230197510CD24CE2AD4275300D7
:100190000A274927C72ACE2000000A2D4128D0224D
:1001A00052000A23D222C32A4527C3244110C42A5D
:1001B000412600010A23D222C32A4527C324411025
:1001C000C220CA2000010A23D222C32A4527C32401
:1001D00041104126D42000018A20C3275222C5277E
:1001E0004E00D422D220D0244110A3127500A53194
:1001F000A022532A41224F05A531202A4529412812
:10020000C9200001A5312023D222C32A4527C324B7
:100210004105A531202AC9224D284F00A5312028AB
:1002200045224926552BC9278A126310DA20502807
:1002300045290000A531A027D021C927CE2253107F
:100240004105A531A027D021C927CE225310420055
:10025000A022D821C5294F10C422A029412600017F
:10026000452CC322D32720224510D3204C005930DF
:1002700084008313000803194B290130F800F701AB
:10028000F70B4029F80B3F294A30F700F70B4629B6
:100290004929800B3D290800600EF039F7000F3026
:1002A00006057704860000008615831686115829F6
:1002B0008312861183168611831208008316861115
:1002C0008610061183128610831686100F300605DD
:1002D000F03886008312061583160611000083127B
:1002E000861583168611000083120608F700060E95
:1002F0000F39F8007808E000861183168611000097
:100300008312861583168611000083120608F700F3
:10031000060E0F39F8007808DF0086118316861163
:100320000F30060586008312600EF700F030F705E7
:1003300077085F04F8007808DF00DF1FA129831623
:100340006629DD08031DA6298610A72986148316B1
:100350008610000083120611831606110000831216
:1003600086118316861183125E0EDF000F30DF05C3
:100370005F08E0004C215E080F39DF00E0004C21EF
:1003800008002830CC000C30CD000130CE00063003
:10039000CF0086118316861183128610831686106D
:1003A00083120611831606110F300605860086118A
:1003B000861006110F308312D90037210130CB008F
:1003C0004B08033C031CEC290330E0004C210530B2
:1003D000D9003721CB0AE0290230E0004C2105305A
:1003E000D9003721CB014B08033C031C032A4C30B6
:1003F0004B07840083130008D000DD015008DE00A5
:100400005E21CB0AF3298A150A12DA2A8E30F70008
:100410004C08F8004B08F900FA01F808031D1A2AE5
:100420007908F800F9010830F702F808031D1A2AC4
:10043000F701222A0310F81B212AF90DF80DF70302
:100440001A2AF813080058080319932AE0005C08D8
:100450000319932AE0070318342A7F30E002031CB3
:10046000932A0319932A382A8130E0070318932A24
:100470006008F700F801F901FA015908E400E417EF
:100480005A08E3005B08E2001830E000E101621C5A
:10049000612A5F08FA07031C532AF90A031D532A2D
:1004A000F80A0319E1175E08F907031C5A2AF80A2B
:1004B0000319E1175D08DA00DA175A08F80703187C
:1004C000E117E10DF80CF90CFA0CE40CE30CE20C6A
:1004D0000310E00B462A0130F7070318932AF81B94
:1004E000782AE40DFA0DF90DF80DF7030319932A94
:1004F000E41F892AFA0A031D892AF90A031D892A99
:10050000F80A031D892AF80CF90CFA0CF70A0319EA
:10051000932A5908E1005D08E106E11F912AF817C6
:10052000972AF813972AF701F801F901FA01080050
:100530004F0803195D2BDB00530803195D2BDB0209
:10054000031CA72A7F30DB0703185D2BAD2A8130FF
:10055000DB02031C5D2B03195D2B5B08F700F80120
:10056000F901FA01DA015008D900D9175108D80069
:100570005208D7001930DB005608D7020318D02ADA
:100580000130D8020318D02AD9020318D02ADA027F
:100590000318D02ADA0AD90AD80A5608D707022B34
:1005A0005508D8020318EB2A0130D9020318EB2AA8
:1005B000DA020318EB2ADA0AD90A5508D8075608CE
:1005C000D707031C022BD80A031D022BD90A031DCF
:1005D000022BDA0A022B54088038D9020318012BA7
:1005E0000130DA020318012BDA0A54088038D907DF
:1005F0005508D807031CDF2AD90A031DDF2ADA0AA7
:10060000DF2A7A14DB0B052B102B0310D70DD80D26
:10061000D90DDA0D0310FA0DF90DF80DDC0DBC2A19
:100620005C1C182B0310F80CF90CFA0CDC0C1B2BBF
:10063000F70303195D2BDC1B442B0310D70DD80DDA
:10064000D90DDA0D5608D7020318302B0130D80225
:100650000318302BD9020318302BDA02031C532B5A
:100660005508D80203183B2B0130D90203183B2B45
:10067000DA02031C532B54088038D9020318442B88
:100680000130DA02031C532BFA0A031D532BF90A1B
:10069000031D532BF80A031D532BF70A03195D2B77
:1006A000F80CF90CFA0C5008DB005408DB06DB1FD1
:1006B0005B2BF817612BF813612BF701F801F90197
:1006C000FA0108005A0B652B682B4030DB00692BC0
:1006D000DB0101305902DB075B088038DC00DD01FB
:1006E0005C08DE005E2108005808073A0319822BD7
:1006F0000B3A0319872B063A03198F2B023A031979
:10070000952B9A2B0130D900DA0062239F2BDD0153
:100710000130DE005E210230D90037219F2B0130ED
:10072000D9000230DA0062239F2BDD011030DE0099
:100730005E219F2B0130DD005808DE005E2108009D
:100740004F08F8014E020318A82B4E08F700B42BEF
:10075000F7010830D000CE0DF70D4F0877020318CF
:10076000F700F80DD00BAB2B080078084C08CE0032
:100770006430CF00A0237708CC0078083030031D08
:10078000C82BCD1CCF2BCD19CF2B4D1A2030CB2B06
:10079000CD114D124D14F8077808D80074234C0879
:1007A000CE000A30CF00A0237708CC007808303084
:1007B000031DE02BCD19E42B4D1CE42B4D1A2030EA
:1007C000F8077808D80074233030CC074C08D800DC
:1007D000742308008318EF2B603084008313F70123
:1007E000F801F901FA01E001E101E201E3015F082A
:1007F0005E045D045C0403192D2C2030E40003101A
:10080000D80DD90DDA0DDB0DE00DE10DE20DE30D94
:100810005F086302031D162C5E086202031D162C7E
:100820005D086102031D162C5C086002031C272C66
:100830005C08E0025D08031C5D0FE1025E08031C1A
:100840005E0FE2025F08031C5F0FE3020314F70D63
:10085000F80DF90DFA0DE40BFF2B60088000840AF7
:1008600061088000840A62088000840A63088000AE
:1008700008000408D0004F08D2000319582C4E0875
:10088000DB004D08DA004C08D9004B08D800DF0126
:10089000DE012030DD008230DC0023227A08CE0029
:1008A0007908CD007808CC007708CB00D20B3F2C1C
:1008B0004E08DB004D08DA004C08D9004B08D80080
:1008C0005808B63CD800FA015908DC00D9170310C3
:1008D000D90CDA0CDB0CFA0CF90CF80CF70CD80B71
:1008E000672CDC1F7E2CF709F809F909FA09F70AC9
:1008F0000319F80A0319F90A0319FA0A7A08CE004B
:100900007908CD007808CC007708CB00CE1F952C55
:10091000D003D016CB09CC09CD09CE09CB0A0319D7
:10092000CC0A0319CD0A0319CE0A3B30D7009A30FE
:10093000D600CA30D500D4010A30D2004F080319BE
:10094000D00A83144B30840083134E08DB004D081B
:10095000DA004C08D9004B08D8005708DF005608C9
:10096000DE005508DD005408DC00EA237808F708AB
:10097000031DCD2C4F0A52020319CD2C5008031928
:10098000CF2C0F3952020319C72C0318FF2CD01B90
:10099000FF2C501BCF2C2030FB2C2030D005D01E3C
:1009A000DD2CD0124F08031DD0037708D0002D3066
:1009B000D80074235008F700D0014F085202031DDD
:1009C000EB2C7708D0002E30D80074235008F700A5
:1009D0002030D00500303030D01EFB2CD0124F0814
:1009E000031DD0037708D0002D30D80074235008A1
:1009F000F700D0013030F7077708D8007423831050
:100A00005708DB005608DA005508D9005408D8000A
:100A1000DF01DE01DD010A30DC00EA237A08D700BD
:100A20007908D6007808D5007708D400D20BA12C1D
:100A300008004C08D3005008D306D31F242D0311FF
:100A40000310CC1B0314572D4C08D3004F08D400BF
:100A50004B08D4020319322DD31F572D0308013A36
:100A60008300572D5008D4004C08D40203193E2DA2
:100A7000D31F572D0308013A8300572D5108D40086
:100A80004D08D40203194A2DD31F572D0308013AEC
:100A90008300572D5208D4004E08D4020319562D56
:100AA000D31F572D0308013A8300572D0310080068
:100AB0000B08CB008B13831603178C170C14000044
:100AC000000083120313CB1B8B1703170C087F390D
:100AD0000319AC2D0313CB0003170D080313CC002F
:100AE00003170F080313CD004B08D80074234C08DC
:100AF00003178D0003134D0803178F0003130B0812
:100B0000CE008B13831603178C170C140000000003
:100B100083120313CE1B8B1703170C0D0E0D7F3999
:100B20000319AC2D0313CB0003170D080313CC00DE
:100B300003170F080313CD004B08D80074234C088B
:100B400003178D0003134D0803178F008D0A031937
:100B50008F0A0313582D031703130800C11CC82D57
:100B60000030F80004389200203083169200803064
:100B7000831295004A114A088316870083120711D1
:100B80000C30970083169B019C0101309D0083125D
:100B9000C118DC2D0030F800043892002030831694
:100BA0009200803083129B00CA104A088316870087
:100BB000831287100C309D000800C11CF72D0030F7
:100BC000F8000438920005308316920080308312BA
:100BD00095004A114A0883168700831207110C30CA
:100BE000970083169B019C0101309D008312C11860
:100BF0000B2E0030F8000438920005308316920066
:100C0000803083129B00CA104A0883168700831223
:100C100087100C309D000800C830D900372108002B
:100C20000C30D800742308000B08CE008B138316F9
:100C300003178C170C140000000083120313CE1B43
:100C40008B1703184B2E03170C087F390313CE00A4
:100C500003170D080313CF0003170F080313D00069
:100C60004E08D80074234F0803178D000313500853
:100C700003178F0003130B08D1008B138316031780
:100C80008C170C140000000083120313D11B8B1768
:100C9000CD0B4B2E6A2E03170C0D0E0D7F3903134F
:100CA000CE0003170D080313CF0003170F0803131B
:100CB000D0004E08D80074234F0803178D0003138B
:100CC000500803178F008D0A03198F0A03100313AE
:100CD000CD0B142E08000030401A0130423E840033
:100CE00083130008CB000030401E0130423E8400D8
:100CF00083130008CC004B08D8007423A7300317D7
:100D00008D0000308F0003100B300313CD0014262C
:100D10004C08D8007423AD3003178D0000308F00CD
:100D2000031407300313CD00142608000030401AC6
:100D30000130423E840083130008CB000030401E87
:100D40000130423E840083130008CC004B08D800D9
:100D50007423B33003178D0000308F0003100A3066
:100D60000313CD0014264C08D8007423B9300317A0
:100D70008D0000308F00031008300313CD001426BF
:100D800008003F08043C031D5D2F0030401B01306C
:100D9000443E840083130008BE000030401B013035
:100DA000443E840083130008FA3E0318082F063ED1
:100DB000612FC83003178D0000308F0003135825B2
:100DC000082FCD3003178D0000308F0003135825F6
:100DD000082FD13003178D0000308F0003135825E2
:100DE000082FDA3003178D0000308F0003135825C9
:100DF000082FE33003178D0000308F0003135825B0
:100E0000082FEC3003178D0000308F000313582596
:100E10000130D900DA0062230030401B0130443E2B
:100E2000840083130008CB00F13003178D000030DD
:100E30008F00031009300313CD0014264B08CC009B
:100E40001B30CD00B5230519392F0519292F0C2684
:100E5000252FBE0A3E08063C031D302F0130BE0080
:100E600010260030401B0130443E840083133E08AE
:100E7000800085194E2F85193F2F0C263B2FBE0869
:100E8000031D442F0630BE00BE0310260030401B59
:100E90000130443E840083133E088000851A552F9C
:100EA000851A542F0C26502FBF03051A5C2F051AE4
:100EB0005B2F0C26572FBF01C12E10268A150A1250
:100EC000882D0A148A140A158207D92EE12EE92EDC
:100ED000F12EF92E012F10260030401B0130463E26
:0A0EE000840083133C088000080022
:101000000030F8001F08C33978049F000630F7004D
:10101000F70B082800009F149F180C2883161E0841
:101020008312AC001E08AD002D08CC002C08CB00AC
:101030008A1106228A157A08DB007908DA00780816
:10104000D9007708D800DF01DE012030DD008130D3
:10105000DC008A1123228A157A08CE007908CD0097
:101060007808CC007708CB007A08D2007908D10044
:101070007808D0007708CF00D601D501D401893097
:10108000D3008A1198228A157A08B3007908B20031
:101090007808B1007708B0000430F8001F08C339A1
:1010A00078049F000630F700F70B542800009F14C7
:1010B0009F18582883161E088312AE001E08AF0022
:1010C0002F08CC002E08CB008A1106228A157A0838
:1010D000DB007908DA007808D9007708D800DF014A
:1010E000DE012030DD008130DC008A1123228A15E8
:1010F0007A08CE007908CD007808CC007708CB00BC
:101100007A08D2007908D1007808D0007708CF009B
:10111000D601D501D4018930D3008A1198228A15CD
:101120007A08B7007908B6007808B5007708B400E7
:101130004019E7280130D900DA008A1162238A15A4
:101140004130D8008A1174238A152030D8008A11C2
:1011500074238A154708CC000130CD008A11B523CD
:101160008A153A30D8008A1174238A153908CC00C0
:101170000130CD008A11B5238A152030D8008A119C
:1011800074238A15893084003308CE003208CD00DC
:101190003108CC003008CB000230CF008A1139244E
:1011A0008A154130D8008A1174238A152030D8005E
:1011B0008A1174238A155A30D8008A1174238A152B
:1011C0004508CC001B30CD008A11B5238A15C01903
:1011D00037290130D9000230DA008A1162238A15DA
:1011E0004230D8008A1174238A152030D8008A1121
:1011F00074238A154608CC000130CD008A11B5232E
:101200008A153A30D8008A1174238A153B08CC001D
:101210000130CD008A11B5238A152030D8008A11FB
:1012200074238A15893084003708CE003608CD0033
:101230003508CC003408CB000230CF008A113924A5
:101240008A154130D8008A1174238A152030D800BD
:101250008A1174238A155A30D8008A1174238A158A
:101260004408CC001B30CD008A11B5238A15401CE0
:101270005F29CE01CD014030CC007F30CB00330858
:10128000D2003208D1003108D0003008CF008A11D6
:1012900019258A1503184E29031D5F2907104015CB
:1012A0000130D900DA008A1162238A152830031729
:1012B0008D0001308F008A11031358258A15C01C38
:1012C0008829CE01CD014030CC007F30CB003708DB
:1012D000D2003608D1003508D0003408CF008A117A
:1012E00019258A1503187629031D88298711C01529
:1012F0000130D9000230DA008A1162238A153030B9
:1013000003178D0001308F008A11031358258A15A9
:10131000C1100030C1180130003A031D6D2A0030A1
:10132000C1180130443E84008313000BC1290030F2
:10133000C1180130463E8400831300083D3A03196A
:10134000AE290B3A0319B229143A0319B629393ACE
:101350000319BA291C3A0319BE29C1298A11AE25DD
:101360008A15C1298A114F208A15C1298A11AE25F3
:101370008A15C1298A114F208A15C1298A11AE25E3
:101380008A150030C1180130443E840083130008E0
:10139000023C031DE0290030C1180130463E8400A4
:1013A000831300083C3A0319D929223A0319DD298D
:1013B000E0298A11AE258A15E0298A11DD258A15D2
:1013C0000030C1180130443E840083130008033C00
:1013D000031DF7290030C1180130463E84008313F5
:1013E00000083C3A031DF7298A11AE258A15003002
:1013F000C1180130443E840083130008043C031DDF
:101400000E2A0030C1180130463E840083130008C4
:101410003C3A031D0E2A8A11DD258A150030C118B9
:101420000130443E840083130008053C031D6A2AF2
:10143000C11C362A0030C01B0130CB000830F80038
:10144000043892004B088316920080308312950076
:101450004A114A0883168700831207110C3097003F
:1014600083169B019C0101309D008312C1184E2AF6
:101470000030C01B0130CB000830F8000438920067
:101480004B0883169200803083129B00CA104A08D2
:1014900083168700831287100C309D000030C01B1C
:1014A0000130003A0319582AFF3A03195A2A5B2AD5
:1014B00041105B2A4114003041180130003A0319F1
:1014C000652A013A0319682A6A2A8030C0066A2A06
:1014D0008030C0060230C10689298A150A12DE2A28
:1014E00003081F398300613083168F000F088312B1
:1014F000B301B201B101B001B701B601B501B40148
:10150000B801B901BA01BB01BC01BD01BE01BF01F7
:101510004010C0104011C0114016C012C01341103D
:10152000FF30CA00831603170908C0398900031366
:101530001F129F1200300317880083128701880151
:10154000890183130313C2013E30C300C401C501E6
:10155000C601C701C801C901FF30831685000030EC
:10156000860087008312CA008316860183128601D3
:10157000CA008316870183128701E0308B0483162B
:101580000108C0390738810003170908C0398900EC
:1015900003131F129F1203300317880083120313D3
:1015A0001F139F1383169F1783121F143A30810055
:1015B0008A11C1298A158715071400280519FA2AE6
:1015C0000519E62A8A110C268A15E02A4018F72AFE
:1015D000003007180130CB000030401B0130483E7E
:1015E0008400831300084B04031D4014FA2A4010A2
:1015F000C701B9018519162B8519022B8A110C26F2
:101600008A15FC2AC018132B003087190130CB0033
:101610000030401F0130483E8400831300084B0413
:10162000031DC014162BC010C601BB01051AA82E3D
:10163000051A1E2B8A110C268A15182B0130BF00A3
:1016400040168A1110268A153F0BA52E0130D900AD
:10165000DA008A1162238A150030401A0130423EB6
:10166000840083130008CB000030401E0130423E4E
:10167000840083130008CC004B08D8008A1174231F
:101680008A151B3003178D0001308F0003100C30BA
:101690000313CD008A1114268A154C08D8008A112C
:1016A00074238A15223003178D0001308F00031038
:1016B0000B300313CD008A1114268A150519672BE8
:1016C0000519662B8A110C268A15602B4016851980
:1016D000702B85196F2B8A110C268A15692B4012E5
:1016E000851A7D2B851A782B8A110C268A15722B68
:1016F0003F08033C0319C012BF03851B9A2E851BAC
:10170000852B8A110C268A157F2B4013401A40170F
:10171000BF0A40168A1110268A153F08023C031D95
:10172000972E0130D900DA008A1162238A15003021
:10173000401A0130423E840083130008CB00003081
:10174000401E0130423E840083130008CC004B0849
:10175000D8008A1174238A150F3003178D000130C9
:101760008F0003100B300313CD008A1114268A1545
:101770004C08D8008A1174238A15153003178D0080
:1017800001308F00031407300313CD008A11142693
:101790008A150519D22B0519D12B8A110C268A1509
:1017A000CB2B40168519DB2B8519DA2B8A110C26D9
:1017B0008A15D42B4012851AE82B851AE32B8A113F
:1017C0000C268A15DD2B3F08033C0319C012BF030A
:1017D000851B8C2E851BF02B8A110C268A15EA2B73
:1017E000BF0A8A1110268A15401E6B2C3F08033C45
:1017F000031D682C0130D900DA008A1162238A1592
:10180000071C042C401B062C0030072C0130CB0099
:10181000871D0C2C401F0E2C00300F2C01304B0666
:101820000319152C8A116B268A150718192C401BD1
:101830001B2C00301C2C0130CB008719212C401FA1
:10184000232C0030242C01304B0603192A2C8A113A
:1018500096268A150519332C0519322C8A110C2667
:101860008A152C2C401685193C2C85193B2C8A1185
:101870000C268A15352C4012851A492C851A442CC1
:101880008A110C268A153E2C3F08033C0319C0120E
:10189000BF03851B5D2C851B512C8A110C268A15D4
:1018A0004B2C401F572C401E0710401A0714401B9A
:1018B0005D2C401E8711401A8715051A672C051AE2
:1018C000652C8A110C268A155F2CC012BF01F62BDD
:1018D0008A1110268A15401A8C2E40163F08033CA8
:1018E000031D892EC01A932D0130D900DA008A1108
:1018F00062238A150030401A0130423E840083136F
:101900000008CB000030401E0130423E84008313AB
:101910000008CC004B08D8008A1174238A15F830CF
:1019200003178D0000308F00031008300313CD0023
:101930008A1114268A154C08D8008A1174238A1536
:10194000FD3003178D0000308F00031008300313A3
:10195000CD008A1114268A150519B52C0519B42C49
:101960008A110C268A15AE2C40168519C62C8519AD
:10197000BD2C8A110C268A15B72C401AC52CC0160E
:1019800040168A1110268A15C62C4012851AD32CAF
:10199000851ACE2C8A110C268A15C82C3F08033CC8
:1019A0000319C012BF03851B892D851BDB2C8A11EF
:1019B0000C268A15D52CBF0A8A1110268A15401EBE
:1019C000832D3F08043C031D802D0130D900DA002F
:1019D0008A1162238A150030401B0130483E840082
:1019E000831380080319F62C401BF82C0030F92CC7
:1019F0000130CB000030401F0130483E840083138B
:101A000080080319052D401F072D0030082D0130D7
:101A10004B0603190E2D8A116B268A150030401BC8
:101A20000130483E840083138008031D192D401B9C
:101A30001B2D00301C2D0130CB000030401F013029
:101A4000483E840083138008031D282D401F2A2D43
:101A500000302B2D01304B060319312D8A119626AB
:101A60008A1505193A2D0519392D8A110C268A1562
:101A7000332D40168519432D8519422D8A110C26C8
:101A80008A153C2D4012851A502D851A4B2D8A112E
:101A90000C268A15452D3F08033C0319C012BF03CD
:101AA000851B752D851B582D8A110C268A15522DE4
:101AB0008A1110268A150030401B0130483EF8007C
:101AC000FA010318FA0A0030401B0130443E84003A
:101AD00083130030401A01308000CD007808840064
:101AE00083137A1883174D088000051A7F2D051A75
:101AF0007D2D8A110C268A15772DC012BF01E12C8D
:101B00008A1110268A15401A892D40168A11C12E75
:101B10008A15051A932D051A912D8A110C268A15FE
:101B20008B2DC012BF01C01E882E0130D900DA00F3
:101B30008A1162238A150030401A0130423E840027
:101B400083130008CB000030401E0130423E840069
:101B500083130008CC004B08D8008A1174238A151F
:101B6000033003178D0001308F0003100C30031376
:101B7000CD008A1114268A154C08D8008A117423C6
:101B80008A150A3003178D0001308F0003100730CB
:101B90000313CD008A1114268A150519DE2D0519A7
:101BA000D52D8A110C268A15CF2D401EDD2DC01291
:101BB00040128A1110268A15DE2D40168519EF2D48
:101BC0008519E62D8A110C268A15E02D401AEE2D76
:101BD000C01640168A1110268A15EF2D4012851A5C
:101BE000FC2D851AF72D8A110C268A15F12D3F0838
:101BF000033C0319C012BF03851B7E2E851B042ED8
:101C00008A110C268A15FE2DBF0A8A1110268A1504
:101C1000401E0E2E3F08043C03190A2E401A7E2E49
:101C200040163F08043C031D7B2E0030401B013052
:101C3000463E840083130008BC000130D900DA005E
:101C40008A1162238A150030401B0130463E840011
:101C500083130008CB00BE3003178D0000308F00C7
:101C6000031007300313CD008A1114268A154B0880
:101C7000CC000130CD008A11B5238A15C33003177B
:101C80008D0000308F00031408300313CD008A113B
:101C900014268A150519592E8A110C268A15BC0A94
:101CA0003C083D3C031D562E0130BC008A116B27B9
:101CB0008A158519672E8A110C268A15BC08031D02
:101CC000632E3D30BC00BC038A116B278A15851A30
:101CD000702E851A6F2E8A110C268A15692EBF0365
:101CE000051A7A2E051A782E8A110C268A15722E5C
:101CF000BF01C012112E8A1110268A15051A882ECE
:101D0000051A862E8A110C268A15802EC012BF0154
:101D10006E2C8A1110268A15051A962E051A942EF5
:101D20008A110C268A158E2EC012BF018D2B8A11A6
:101D300010268A15051AA42E051AA22E8A110C2621
:101D40008A159C2EC012BF01242B8A1110268A15D9
:041D5000DD2A630025
:04400E00042CFF3F40
:00000001FF
;PIC16F886
;CRC=EE92  CREATED="07-may-18 20:26"
