:1000000008308A0000280000FF00030E8301A100D1
:100010000A08A0008A010408A2007708A300780853
:10002000A4007908A5007A08A60003170D08031399
:10003000A70003170F080313A80003170C080313E6
:10004000A90003170E080313AA00831383128B1E43
:100050002B280B194C28220884002308F7002408B9
:10006000F8002508F9002608FA00270803178D0074
:100070000313280803178F000313290803178C00A4
:1000800003132A0803178E00031320088A00210E89
:100090008300FF0E7F0E09008A110A1266283C1F9A
:1000A0005A28F03097050030F8009200013083168E
:1000B000920083123C1B6528F0309D050030F8004B
:1000C0009200013083169200831208003C1C8C2899
:1000D0003A308100B808031D8B283C1D7528BD0BE4
:1000E000752807140530BD003C111430B800B9085C
:1000F000031D82283C30B900C208031D81283C3012
:10010000C200C203B90B8B28C208031D8B2807103D
:100110003C103C174F20B803BC1CB2283A30810079
:10012000BA08031DB128BC1D9B28BE0B9B28871550
:100130000530BE00BC111430BA00BB08031DA8284E
:100140003C30BB00C108031DA7283C30C100C103DF
:10015000BB0BB128C108031DB1288711BC103C1787
:100160004F20BA030B118A110A122B28A022D82182
:10017000C5294F10C422A029412620100000A0222A
:10018000D821C5294F10C422A029412620100000E3
:1001900053308400831300080319DC280130F80071
:1001A000F701F70BD128F80BD0284A30F700F70BEE
:1001B000D728DA28800BCE2808005A0EF039F7002D
:1001C0000F30060577048600000086158316861119
:1001D000E928831286118316861183120800060807
:1001E000F700060E0F39F8000800831686118610F6
:1001F000061183128610831686100F300605F0381C
:1002000086008312061583160611000083128615D8
:100210008316861100008312EF207808DA00861119
:10022000831686110000831286158316861100003E
:100230008312EF207808D9008611831686110F30BB
:100240000605860083125A0EF700F030F70577088E
:100250005904F8007808D900D91F30298316FD28E1
:10026000D708031D35298610362986148316861073
:1002700000008312061183160611000083128611F6
:10028000831686118312580ED9000F30D9055908EC
:10029000DA00DD2058080F39D900DA00DD20080027
:1002A0002830C6000C30C7000130C8000630C90035
:1002B0008611831686118312861083168610831288
:1002C0000611831606110F3006058600861186106A
:1002D00006110F308312D300C8200130C500450835
:1002E000033C031C7B290330DA00DD200530D300FA
:1002F000C820C50A6F290230DA00DD200530D3009E
:10030000C820C5014508033C031C92294630450717
:10031000840083130008CA00D7014A08D800F520DA
:10032000C50A82298A150A1264288E30F700460809
:10033000F8004508F900FA01F808031DA929790811
:10034000F800F9010830F702F808031DA929F701A0
:10035000B1290310F81BB029F90DF80DF703A929ED
:10036000F813080052080319222ADA005608031964
:10037000222ADA070318C3297F30DA02031C222A53
:100380000319222AC7298130DA070318222A5A08BA
:10039000F700F801F901FA015308DE00DE175408EE
:1003A000DD005508DC001830DA00DB015C1CF029A8
:1003B0005908FA07031CE229F90A031DE229F80A81
:1003C0000319DB175808F907031CE929F80A031970
:1003D000DB175708D400D4175408F8070318DB17A5
:1003E000DB0DF80CF90CFA0CDE0CDD0CDC0C031048
:1003F000DA0BD5290130F7070318222AF81B072A40
:10040000DE0DFA0DF90DF80DF7030319222ADE1F90
:10041000182AFA0A031D182AF90A031D182AF80ACD
:10042000031D182AF80CF90CFA0CF70A0319222AF2
:100430005308DB005708DB06DB1F202AF817262AA3
:10044000F813262AF701F801F901FA010800490812
:100450000319EC2AD5004D080319EC2AD502031C18
:10046000362A7F30D5070318EC2A3C2A8130D50282
:10047000031CEC2A0319EC2A5508F700F801F901CE
:10048000FA01D4014A08D300D3174B08D2004C0814
:10049000D1001930D5005008D10203185F2A01306D
:1004A000D20203185F2AD30203185F2AD40203186A
:1004B0005F2AD40AD30AD20A5008D107912A4F08DA
:1004C000D20203187A2A0130D30203187A2AD402FE
:1004D00003187A2AD40AD30A4F08D2075008D10742
:1004E000031C912AD20A031D912AD30A031D912AC3
:1004F000D40A912A4E088038D3020318902A01307A
:10050000D4020318902AD40A4E088038D3074F0823
:10051000D207031C6E2AD30A031D6E2AD40A6E2A40
:100520007A14D50B942A9F2A0310D10DD20DD30D26
:10053000D40D0310FA0DF90DF80DD60D4B2A561CEB
:10054000A72A0310F80CF90CFA0CD60CAA2AF70308
:100550000319EC2AD61BD32A0310D10DD20DD30DCB
:10056000D40D5008D1020318BF2A0130D20203185B
:10057000BF2AD3020318BF2AD402031CE22A4F0861
:10058000D2020318CA2A0130D3020318CA2AD4029D
:10059000031CE22A4E088038D3020318D32A013004
:1005A000D402031CE22AFA0A031DE22AF90A031DF7
:1005B000E22AF80A031DE22AF70A0319EC2AF80CCA
:1005C000F90CFA0C4A08D5004E08D506D51FEA2AC0
:1005D000F817F02AF813F02AF701F801F901FA01E7
:1005E0000800540BF42AF72A4030D500F82AD50128
:1005F00001305302D50755088038D600D701560878
:10060000D800F52008005208073A0319112B0B3ABD
:100610000319162B063A03191E2B023A0319242B31
:10062000292B0130D300D400F1222E2BD701013029
:10063000D800F5200230D300C8202E2B0130D30083
:100640000230D400F1222E2BD7011030D800F52033
:100650002E2B0130D7005208D800F520080048089A
:10066000F80147020318372B4708F700432BF7011F
:100670000830C900C70DF70D480877020318F700C6
:10068000F80DC90B3A2B080078084508C7006430FC
:10069000C8002F237708C50078083030031D572B7A
:1006A000C61C5E2BC6195E2B461A20305A2BC6116B
:1006B00046124614F8077808D20003234508C700FD
:1006C0000A30C8002F237708C50078083030031D92
:1006D0006F2BC619732B461C732B461A2030F80754
:1006E0007808D20003233030C5074508D200032321
:1006F000080083187E2B5A3084008313F701F80119
:10070000F901FA01DA01DB01DC01DD0159085804C5
:10071000570456040319BC2B2030DE000310D20D01
:10072000D30DD40DD50DDA0DDB0DDC0DDD0D590823
:100730005D02031DA52B58085C02031DA52B57085D
:100740005B02031DA52B56085A02031CB62B560844
:10075000DA025708031C570FDB025808031C580F16
:10076000DC025908031C590FDD020314F70DF80DC4
:10077000F90DFA0DDE0B8E2B5A088000840A5B08F7
:100780008000840A5C088000840A5D0880000800FC
:100790000408CA004908CC000319E72B4808D50013
:1007A0004708D4004608D3004508D200D901D80133
:1007B0002030D7008230D600B2217A08C8007908EC
:1007C000C7007808C6007708C500CC0BCE2B4808B8
:1007D000D5004708D4004608D3004508D200520887
:1007E000B63CD200FA015308D600D3170310D30C3D
:1007F000D40CD50CFA0CF90CF80CF70CD20BF62B28
:10080000D61F0D2CF709F809F909FA09F70A031997
:10081000F80A0319F90A0319FA0A7A08C8007908CC
:10082000C7007808C6007708C500C81F242CCA0373
:10083000CA16C509C609C709C809C50A0319C60ADF
:100840000319C70A0319C80A3B30D1009A30D000F7
:10085000CA30CF00CE010A30CC0049080319CA0AB9
:1008600083144530840083134808D5004708D4001A
:100870004608D3004508D2005108D9005008D800D6
:100880004F08D7004E08D60079237808F708031DD3
:100890005C2C490A4C0203195C2C4A0803195E2C93
:1008A0000F394C020319562C03188E2CCA1B8E2CA0
:1008B0004A1B5E2C20308A2C2030CA05CA1E6C2CA4
:1008C000CA124908031DCA037708CA002D30D20096
:1008D00003234A08F700CA0149084C02031D7A2C79
:1008E0007708CA002E30D20003234A08F7002030D0
:1008F000CA0500303030CA1E8A2CCA124908031DAE
:10090000CA037708CA002D30D20003234A08F70033
:10091000CA013030F7077708D2000323831051084B
:10092000D5005008D4004F08D3004E08D200D9019A
:10093000D801D7010A30D60079237A08D100790886
:10094000D0007808CF007708CE00CC0B302C080000
:100950004608CD004A08CD06CD1FB32C0311031065
:10096000C61B0314E62C4608CD004908CE004508F6
:10097000CE020319C12CCD1FE62C0308013A8300D7
:10098000E62C4A08CE004608CE020319CD2CCD1F16
:10099000E62C0308013A8300E62C4B08CE004708FA
:1009A000CE020319D92CCD1FE62C0308013A83008F
:1009B000E62C4C08CE004808CE020319E52CCD1FCA
:1009C000E62C0308013A8300E62C031008000B080C
:1009D000C5008B13831603178C170C14000000003E
:1009E00083120313C51B8B1703170C087F390319D8
:1009F0003B2D0313C50003170D080313C60003178F
:100A00000F080313C7004508D20003234608031745
:100A10008D000313470803178F0003130B08C8004A
:100A20008B13831603178C170C140000000083121D
:100A30000313C81B8B1703170C0D0E0D7F390319F9
:100A40003B2D0313C50003170D080313C60003173E
:100A50000F080313C7004508D200032346080317F5
:100A60008D000313470803178F008D0A03198F0A9F
:100A70000313E72C0317031308003C1F572D003006
:100A8000F8000438920020308316920080308312E0
:100A900095004411440883168700831207110C3017
:100AA000970083169B019C0101309D0083123C1B23
:100AB0006B2D0030F800043892002030831692002D
:100AC000803083129B00C410440883168700831271
:100AD00087100C309D0008003C1F862D0030F80068
:100AE00004389200053083169200803083129500FE
:100AF0004411440883168700831207110C309700B5
:100B000083169B019C0101309D0083123C1B9A2D92
:100B10000030F800043892000530831692008030CF
:100B200083129B00C4104408831687008312871029
:100B30000C309D0008000030F8001F08C33978040D
:100B40009F000630F700F70BA32D00009F149F189D
:100B5000A72D83161E088312AC001E08AD002D08B9
:100B6000C6002C08C50095217A08D5007908D40064
:100B70007808D3007708D200D901D8012030D700F7
:100B80008130D600B2217A08C8007908C7007808F9
:100B9000C6007708C5007A08CC007908CB00780831
:100BA000CA007708C900D001CF01CE018930CD003D
:100BB00027227A08B3007908B2007808B1007708D4
:100BC000B0000430F8001F08C33978049F000630D5
:100BD000F700F70BE92D00009F149F18ED2D8316E9
:100BE0001E088312AE001E08AF002F08C6002E0894
:100BF000C50095217A08D5007908D4007808D3007B
:100C00007708D200D901D8012030D7008130D60032
:100C1000B2217A08C8007908C7007808C6007708AA
:100C2000C5007A08CC007908CB007808CA0077089C
:100C3000C900D001CF01CE018930CD0027227A082A
:100C4000B7007908B6007808B5007708B4003C19F9
:100C50005E2E0130D300D400F1224130D2000323B4
:100C60002030D20003234208C5000130C6004423CF
:100C70003A30D20003233908C5000130C6004423AE
:100C80002030D2000323893084003308C8003208A2
:100C9000C7003108C6003008C5000230C900C823AB
:100CA0004130D20003232030D20003235A30D20037
:100CB00003234008C5001B30C6004423BC19962EF0
:100CC0000130D3000230D400F1224230D20003239D
:100CD0002030D20003234108C5000130C600442360
:100CE0003A30D20003233B08C5000130C60044233C
:100CF0002030D2000323893084003708C80036082A
:100D0000C7003508C6003408C5000230C900C82332
:100D10004130D20003232030D20003235A30D200C6
:100D200003233F08C5001B30C60044233C1CB82EDB
:100D3000C801C7014030C6007F30C5003308CC0071
:100D40003208CB003108CA003008C900A8240318B3
:100D5000AB2E031DB82E07103C150130D300D40074
:100D6000F122B63003178D0000308F000313E72403
:100D7000BC1CDB2EC801C7014030C6007F30C50057
:100D80003708CC003608CB003508CA003408C90043
:100D9000A8240318CD2E031DDB2E8711BC150130AE
:100DA000D3000230D400F122BF3003178D00003091
:100DB0008F000313E7243C1300303C1B0130003A42
:100DC000031DB72F00303C1B01303F3E84008313CE
:100DD000800803194F2000303C1B01303F3E840047
:100DE0008313000B132F00303C1B0130413E840065
:100DF000831300083C3A03190A2F0A3A03190C2FEF
:100E0000143A03190E2F393A0319102F1C3A0319FB
:100E1000122F132F3D25132F4F20132F3D25132F56
:100E20004F20132F3D2500303C1B01303F3E8400F6
:100E300083130008023C031D2E2F00303C1B0130A1
:100E4000413E8400831300083C3A03192B2F223AB9
:100E500003192D2F2E2F3D252E2F6C2500303C1BE6
:100E600001303F3E840083130008033C031D432FE1
:100E700000303C1B0130413E8400831300083C3AA3
:100E8000031D432F3D2500303C1B01303F3E8400B5
:100E900083130008043C031D582F00303C1B013015
:100EA000413E8400831300083C3A031D582F6C25F3
:100EB00000303C1B01303F3E840083130008053C9A
:100EC000031DB42F3C1F802F00303C1A0130C50099
:100ED0000830F800043892004508831692008030EC
:100EE000831295004411440883168700831207116A
:100EF0000C30970083169B019C0101309D008312EA
:100F00003C1B982F00303C1A0130C5000830F80017
:100F100004389200450883169200803083129B00AB
:100F2000C410440883168700831287100C309D007C
:100F300000303C1A0130003A0319A22FFF3A03197E
:100F4000A42FA52FBC12A52FBC160030BC1A01304F
:100F5000003A0319AF2F013A0319B22FB42F103002
:100F6000BC06B42F1030BC064030BC06DC2E8A15FF
:0C0F70000A126928C830D300C82008000D
:1010000003081F398300613083168F000F08831295
:10101000B301B201B101B001B701B601B501B4012C
:10102000B801B901BA01BB013C10BC103C11BC11A4
:101030003C12BC120530BD000530BE00FF30C400BC
:10104000831603170908C039890003131F129F1262
:1010500000300317880083128701880189018313F8
:101060000313BF01C001C101C201C301FF308316D8
:1010700085000030860087008312C4008316860135
:1010800083128601C4008316870183128701E03032
:101090008B0483160108C03907388100031709083B
:1010A000C039890003131F129F12033003178800F1
:1010B000831203131F139F1383169F1783121F148A
:1010C0003A3081008A1150298A15871507148A1130
:1010D0009B2D8A1505198228051972288A11BA27AD
:1010E0008A156C283C187F28003007180130C6008C
:1010F0000030C31801304604031D3C1482283C1004
:10110000C201B90185199A2885198A288A11BA2736
:101110008A158428BC189728003087190130C6002A
:101120000030431801304604031DBC149A28BC103B
:10113000C101BB01851AA928851AA2288A11BA27DC
:101140008A159C283C18A928C00A4008063C0319A7
:10115000C001851BB828851BB1288A11BA278A15BA
:10116000AB28BC18B828BF0A3F08063C0319BF01CA
:041170006728630089
:04400E00042CFF3F40
:00000001FF
;PIC16F886
;CRC=2879  CREATED="20-may-18 17:48"
